{
  "_format": "hh-sol-artifact-1",
  "contractName": "Luckylads",
  "sourceName": "contracts/LuckyLads.sol",
  "abi": [
    {
      "inputs": [],
      "stateMutability": "payable",
      "type": "constructor"
    },
    {
      "anonymous": false,
      "inputs": [
        {
          "indexed": true,
          "internalType": "address",
          "name": "previousOwner",
          "type": "address"
        },
        {
          "indexed": true,
          "internalType": "address",
          "name": "newOwner",
          "type": "address"
        }
      ],
      "name": "OwnershipTransferred",
      "type": "event"
    },
    {
      "inputs": [],
      "name": "getrandomResult",
      "outputs": [
        {
          "internalType": "bytes32",
          "name": "requestId",
          "type": "bytes32"
        }
      ],
      "stateMutability": "nonpayable",
      "type": "function"
    },
    {
      "inputs": [],
      "name": "owner",
      "outputs": [
        {
          "internalType": "address",
          "name": "",
          "type": "address"
        }
      ],
      "stateMutability": "view",
      "type": "function"
    },
    {
      "inputs": [
        {
          "internalType": "uint256",
          "name": "",
          "type": "uint256"
        }
      ],
      "name": "paid",
      "outputs": [
        {
          "internalType": "bool",
          "name": "",
          "type": "bool"
        }
      ],
      "stateMutability": "view",
      "type": "function"
    },
    {
      "inputs": [
        {
          "internalType": "uint256",
          "name": "_round",
          "type": "uint256"
        },
        {
          "internalType": "address[5]",
          "name": "_winners",
          "type": "address[5]"
        }
      ],
      "name": "payOut",
      "outputs": [],
      "stateMutability": "nonpayable",
      "type": "function"
    },
    {
      "inputs": [],
      "name": "randomResult",
      "outputs": [
        {
          "internalType": "uint256",
          "name": "",
          "type": "uint256"
        }
      ],
      "stateMutability": "view",
      "type": "function"
    },
    {
      "inputs": [
        {
          "internalType": "bytes32",
          "name": "requestId",
          "type": "bytes32"
        },
        {
          "internalType": "uint256",
          "name": "randomness",
          "type": "uint256"
        }
      ],
      "name": "rawFulfillRandomness",
      "outputs": [],
      "stateMutability": "nonpayable",
      "type": "function"
    },
    {
      "inputs": [],
      "name": "renounceOwnership",
      "outputs": [],
      "stateMutability": "nonpayable",
      "type": "function"
    },
    {
      "inputs": [],
      "name": "resolveWinners",
      "outputs": [
        {
          "internalType": "uint32[5]",
          "name": "luckyGuys",
          "type": "uint32[5]"
        }
      ],
      "stateMutability": "nonpayable",
      "type": "function"
    },
    {
      "inputs": [
        {
          "internalType": "address",
          "name": "newOwner",
          "type": "address"
        }
      ],
      "name": "transferOwnership",
      "outputs": [],
      "stateMutability": "nonpayable",
      "type": "function"
    },
    {
      "inputs": [
        {
          "internalType": "uint256",
          "name": "round",
          "type": "uint256"
        }
      ],
      "name": "viewWinners",
      "outputs": [
        {
          "internalType": "uint32[5]",
          "name": "winners",
          "type": "uint32[5]"
        }
      ],
      "stateMutability": "view",
      "type": "function"
    }
  ],
  "bytecode": "0x60c0604052600060025567d71b0fe0a28e0000600555738c7382f9d8f56b33781fe506e897a4f1e2d1725573326c977e6efc84e512bb9c30f76e30c160ed06fb8173ffffffffffffffffffffffffffffffffffffffff1660a08173ffffffffffffffffffffffffffffffffffffffff1660601b815250508073ffffffffffffffffffffffffffffffffffffffff1660808173ffffffffffffffffffffffffffffffffffffffff1660601b8152505050506100cb6100c061010960201b60201c565b61011160201b60201c565b7f6e75b569a01ef56d18cab6a8e71e6600d6ce853834d4a5748b720d06f878b3a460001b60038190555067016345785d8a00006004819055506101d7565b600033905090565b6000600160009054906101000a900473ffffffffffffffffffffffffffffffffffffffff16905081600160006101000a81548173ffffffffffffffffffffffffffffffffffffffff021916908373ffffffffffffffffffffffffffffffffffffffff1602179055508173ffffffffffffffffffffffffffffffffffffffff168173ffffffffffffffffffffffffffffffffffffffff167f8be0079c531659141344cd1fd0a4f28419497f9722a3daafe3b4186f6b6457e060405160405180910390a35050565b60805160601c60a05160601c611771610210600039600081816104560152610ace0152600081816105730152610a9201526117716000f3fe608060405234801561001057600080fd5b506004361061009e5760003560e01c8063e90a18e611610066578063e90a18e614610121578063efa51cda1461013f578063f2fde38b1461016f578063f3f073ad1461018b578063fc93a7c8146101bb5761009e565b806342619f66146100a3578063715018a6146100c15780637f8e800d146100cb5780638da5cb5b146100e757806394985ddd14610105575b600080fd5b6100ab6101d9565b6040516100b891906112d8565b60405180910390f35b6100c96101df565b005b6100e560048036038101906100e09190610ea5565b610267565b005b6100ef61042a565b6040516100fc9190611120565b60405180910390f35b61011f600480360381019061011a9190610e17565b610454565b005b6101296104f0565b60405161013691906111af565b60405180910390f35b61015960048036038101906101549190610e53565b61066e565b6040516101669190611194565b60405180910390f35b61018960048036038101906101849190610dc5565b61068e565b005b6101a560048036038101906101a09190610e53565b610786565b6040516101b29190611179565b60405180910390f35b6101c3610810565b6040516101d09190611179565b60405180910390f35b60065481565b6101e76109b5565b73ffffffffffffffffffffffffffffffffffffffff1661020561042a565b73ffffffffffffffffffffffffffffffffffffffff161461025b576040517f08c379a000000000000000000000000000000000000000000000000000000000815260040161025290611278565b60405180910390fd5b61026560006109bd565b565b61026f6109b5565b73ffffffffffffffffffffffffffffffffffffffff1661028d61042a565b73ffffffffffffffffffffffffffffffffffffffff16146102e3576040517f08c379a00000000000000000000000000000000000000000000000000000000081526004016102da90611278565b60405180910390fd5b816008600082815260200190815260200160002060009054906101000a900460ff1615610345576040517f08c379a000000000000000000000000000000000000000000000000000000000815260040161033c90611298565b60405180910390fd5b60005b60058110156104245782816005811061038a577f4e487b7100000000000000000000000000000000000000000000000000000000600052603260045260246000fd5b60200201602081019061039d9190610dc5565b73ffffffffffffffffffffffffffffffffffffffff166108fc6005549081150290604051600060405180830381858888f193505050501580156103e4573d6000803e3d6000fd5b5060016008600086815260200190815260200160002060006101000a81548160ff021916908315150217905550808061041c90611480565b915050610348565b50505050565b6000600160009054906101000a900473ffffffffffffffffffffffffffffffffffffffff16905090565b7f000000000000000000000000000000000000000000000000000000000000000073ffffffffffffffffffffffffffffffffffffffff163373ffffffffffffffffffffffffffffffffffffffff16146104e2576040517f08c379a00000000000000000000000000000000000000000000000000000000081526004016104d9906112b8565b60405180910390fd5b6104ec8282610a83565b5050565b60006104fa6109b5565b73ffffffffffffffffffffffffffffffffffffffff1661051861042a565b73ffffffffffffffffffffffffffffffffffffffff161461056e576040517f08c379a000000000000000000000000000000000000000000000000000000000815260040161056590611278565b60405180910390fd5b6004547f000000000000000000000000000000000000000000000000000000000000000073ffffffffffffffffffffffffffffffffffffffff166370a08231306040518263ffffffff1660e01b81526004016105ca9190611120565b60206040518083038186803b1580156105e257600080fd5b505afa1580156105f6573d6000803e3d6000fd5b505050506040513d601f19601f8201168201806040525081019061061a9190610e7c565b101561065b576040517f08c379a000000000000000000000000000000000000000000000000000000000815260040161065290611258565b60405180910390fd5b610669600354600454610a8e565b905090565b60086020528060005260406000206000915054906101000a900460ff1681565b6106966109b5565b73ffffffffffffffffffffffffffffffffffffffff166106b461042a565b73ffffffffffffffffffffffffffffffffffffffff161461070a576040517f08c379a000000000000000000000000000000000000000000000000000000000815260040161070190611278565b60405180910390fd5b600073ffffffffffffffffffffffffffffffffffffffff168173ffffffffffffffffffffffffffffffffffffffff16141561077a576040517f08c379a000000000000000000000000000000000000000000000000000000000815260040161077190611238565b60405180910390fd5b610783816109bd565b50565b61078e610c5c565b60076000838152602001908152602001600020600580602002604051908101604052809291908260058015610804576020028201916000905b82829054906101000a900463ffffffff1663ffffffff16815260200190600401906020826003010492830192600103820291508084116107c75790505b50505050509050919050565b610818610c5c565b6108206109b5565b73ffffffffffffffffffffffffffffffffffffffff1661083e61042a565b73ffffffffffffffffffffffffffffffffffffffff1614610894576040517f08c379a000000000000000000000000000000000000000000000000000000000815260040161088b90611278565b60405180910390fd5b60005b60058160ff161015610974576000806008836108b391906113a3565b60ff16600654901c90506101f581111561090b576000600654846040516020016108de9291906110f4565b6040516020818303038152906040528051906020012060001c90506101f4816109079190611519565b9250505b81848460ff1660058110610948577f4e487b7100000000000000000000000000000000000000000000000000000000600052603260045260246000fd5b602002019063ffffffff16908163ffffffff16815250505050808061096c906114c9565b915050610897565b5080600760006002548152602001908152602001600020906005610999929190610c7e565b50600260008154809291906109ad90611480565b919050555090565b600033905090565b6000600160009054906101000a900473ffffffffffffffffffffffffffffffffffffffff16905081600160006101000a81548173ffffffffffffffffffffffffffffffffffffffff021916908373ffffffffffffffffffffffffffffffffffffffff1602179055508173ffffffffffffffffffffffffffffffffffffffff168173ffffffffffffffffffffffffffffffffffffffff167f8be0079c531659141344cd1fd0a4f28419497f9722a3daafe3b4186f6b6457e060405160405180910390a35050565b806006819055505050565b60007f000000000000000000000000000000000000000000000000000000000000000073ffffffffffffffffffffffffffffffffffffffff16634000aea07f000000000000000000000000000000000000000000000000000000000000000084866000604051602001610b029291906111ca565b6040516020818303038152906040526040518463ffffffff1660e01b8152600401610b2f9392919061113b565b602060405180830381600087803b158015610b4957600080fd5b505af1158015610b5d573d6000803e3d6000fd5b505050506040513d601f19601f82011682018060405250810190610b819190610dee565b506000610ba38460003060008089815260200190815260200160002054610bed565b9050600160008086815260200190815260200160002054610bc4919061134d565b60008086815260200190815260200160002081905550610be48482610c29565b91505092915050565b600084848484604051602001610c0694939291906111f3565b6040516020818303038152906040528051906020012060001c9050949350505050565b60008282604051602001610c3e9291906110c8565b60405160208183030381529060405280519060200120905092915050565b6040518060a00160405280600590602082028036833780820191505090505090565b826005600701600890048101928215610d105791602002820160005b83821115610cde57835183826101000a81548163ffffffff021916908363ffffffff1602179055509260200192600401602081600301049283019260010302610c9a565b8015610d0e5782816101000a81549063ffffffff0219169055600401602081600301049283019260010302610cde565b505b509050610d1d9190610d21565b5090565b5b80821115610d3a576000816000905550600101610d22565b5090565b600081359050610d4d816116df565b92915050565b600081905082602060050282011115610d6b57600080fd5b92915050565b600081519050610d80816116f6565b92915050565b600081359050610d958161170d565b92915050565b600081359050610daa81611724565b92915050565b600081519050610dbf81611724565b92915050565b600060208284031215610dd757600080fd5b6000610de584828501610d3e565b91505092915050565b600060208284031215610e0057600080fd5b6000610e0e84828501610d71565b91505092915050565b60008060408385031215610e2a57600080fd5b6000610e3885828601610d86565b9250506020610e4985828601610d9b565b9150509250929050565b600060208284031215610e6557600080fd5b6000610e7384828501610d9b565b91505092915050565b600060208284031215610e8e57600080fd5b6000610e9c84828501610db0565b91505092915050565b60008060c08385031215610eb857600080fd5b6000610ec685828601610d9b565b9250506020610ed785828601610d53565b9150509250929050565b6000610eed83836110a2565b60208301905092915050565b610f02816113de565b82525050565b610f11816112fd565b610f1b8184611320565b9250610f26826112f3565b8060005b83811015610f57578151610f3e8782610ee1565b9650610f4983611313565b925050600181019050610f2a565b505050505050565b610f68816113f0565b82525050565b610f77816113fc565b82525050565b610f8e610f89826113fc565b6114f3565b82525050565b6000610f9f82611308565b610fa9818561132b565b9350610fb981856020860161144d565b610fc2816115a8565b840191505092915050565b6000610fda60268361133c565b9150610fe5826115c6565b604082019050919050565b6000610ffd602b8361133c565b915061100882611615565b604082019050919050565b600061102060208361133c565b915061102b82611664565b602082019050919050565b600061104360108361133c565b915061104e8261168d565b602082019050919050565b6000611066601f8361133c565b9150611071826116b6565b602082019050919050565b61108581611426565b82525050565b61109c61109782611426565b6114fd565b82525050565b6110ab81611430565b82525050565b6110c26110bd82611440565b611507565b82525050565b60006110d48285610f7d565b6020820191506110e4828461108b565b6020820191508190509392505050565b6000611100828561108b565b60208201915061111082846110b1565b6001820191508190509392505050565b60006020820190506111356000830184610ef9565b92915050565b60006060820190506111506000830186610ef9565b61115d602083018561107c565b818103604083015261116f8184610f94565b9050949350505050565b600060a08201905061118e6000830184610f08565b92915050565b60006020820190506111a96000830184610f5f565b92915050565b60006020820190506111c46000830184610f6e565b92915050565b60006040820190506111df6000830185610f6e565b6111ec602083018461107c565b9392505050565b60006080820190506112086000830187610f6e565b611215602083018661107c565b6112226040830185610ef9565b61122f606083018461107c565b95945050505050565b6000602082019050818103600083015261125181610fcd565b9050919050565b6000602082019050818103600083015261127181610ff0565b9050919050565b6000602082019050818103600083015261129181611013565b9050919050565b600060208201905081810360008301526112b181611036565b9050919050565b600060208201905081810360008301526112d181611059565b9050919050565b60006020820190506112ed600083018461107c565b92915050565b6000819050919050565b600060059050919050565b600081519050919050565b6000602082019050919050565b600081905092915050565b600082825260208201905092915050565b600082825260208201905092915050565b600061135882611426565b915061136383611426565b9250827fffffffffffffffffffffffffffffffffffffffffffffffffffffffffffffffff038211156113985761139761154a565b5b828201905092915050565b60006113ae82611440565b91506113b983611440565b92508160ff04831182151516156113d3576113d261154a565b5b828202905092915050565b60006113e982611406565b9050919050565b60008115159050919050565b6000819050919050565b600073ffffffffffffffffffffffffffffffffffffffff82169050919050565b6000819050919050565b600063ffffffff82169050919050565b600060ff82169050919050565b60005b8381101561146b578082015181840152602081019050611450565b8381111561147a576000848401525b50505050565b600061148b82611426565b91507fffffffffffffffffffffffffffffffffffffffffffffffffffffffffffffffff8214156114be576114bd61154a565b5b600182019050919050565b60006114d482611440565b915060ff8214156114e8576114e761154a565b5b600182019050919050565b6000819050919050565b6000819050919050565b6000611512826115b9565b9050919050565b600061152482611426565b915061152f83611426565b92508261153f5761153e611579565b5b828206905092915050565b7f4e487b7100000000000000000000000000000000000000000000000000000000600052601160045260246000fd5b7f4e487b7100000000000000000000000000000000000000000000000000000000600052601260045260246000fd5b6000601f19601f8301169050919050565b60008160f81b9050919050565b7f4f776e61626c653a206e6577206f776e657220697320746865207a65726f206160008201527f6464726573730000000000000000000000000000000000000000000000000000602082015250565b7f4e6f7420656e6f756768204c494e4b202d2066696c6c20636f6e74726163742060008201527f7769746820666175636574000000000000000000000000000000000000000000602082015250565b7f4f776e61626c653a2063616c6c6572206973206e6f7420746865206f776e6572600082015250565b7f416c72656164792070616964206f757400000000000000000000000000000000600082015250565b7f4f6e6c7920565246436f6f7264696e61746f722063616e2066756c66696c6c00600082015250565b6116e8816113de565b81146116f357600080fd5b50565b6116ff816113f0565b811461170a57600080fd5b50565b611716816113fc565b811461172157600080fd5b50565b61172d81611426565b811461173857600080fd5b5056fea26469706673582212204a138ba839141dbf06af2331e352a2e8d32371603c8a4b22ad911180245cba2564736f6c63430008040033",
  "linkReferences": {},
  "deployedLinkReferences": {}
}